:020000040800F2
:10000000005000207D0D00080D0D0008130D0008A4
:10001000190D00081F0D0008250D00080000000044
:100020000000000000000000000000002B0D000890
:10003000370D000800000000430D00084F0D0008B8
:10004000C50D0008C50D0008C50D0008C50D000848
:10005000C50D0008C50D0008C50D0008C50D000838
:10006000C50D0008C50D0008C50D0008C50D000828
:10007000C50D0008C50D0008C50D0008C50D000818
:10008000C50D0008C50D0008C50D0008C50D000808
:10009000C50D0008C50D0008C50D0008C50D0008F8
:1000A000C50D0008C50D0008C50D0008C50D0008E8
:1000B000C50D0008C50D0008C50D0008C50D0008D8
:1000C000C50D0008C50D0008C50D0008C50D0008C8
:1000D000C50D00085D0D0008C50D0008C50D000820
:1000E000C50D0008C50D0008C50D00080000000082
:1000F0000000000000000000000000000000000000
:0C01000000000000000000005FF808F1A3
:10010C0010B5054C237833B9044B13B10448AFF345
:10011C0000800123237010BD64000020000000004B
:10012C001C41000808B5034B1BB103490348AFF34E
:10013C00008008BD00000000680000201C41000881
:10014C0080B485B000AFF860B9607A603B60FA6843
:10015C00BB68D31AB9693A688A1A03FB02F2796848
:10016C00BB68CB1A92FBF3F23B6813441846143766
:10017C00BD4680BC7047000080B588B002AF786087
:10018C0000233B827B681B78FB7300237B6100237D
:10019C00FB7405E07B6901337B617B69072B5AD8C3
:1001AC007A687B6913441B78412B0BD07A687B6986
:1001BC0013441B78422B05D07A687B6913441B7857
:1001CC00432BE7D17B69042B09D07B69042B0FD817
:1001DC007B69022B09D07B69032B03D008E0032336
:1001EC00FB7405E00223FB7402E00123FB7400BFE7
:1001FC007A687B6913441B78BB737B68591CFA7C47
:10020C0007F10803184603F075FF7B680133FA7C8D
:10021C001946134803F06EFF07F10803184603F064
:10022C00ABFE03463B82388A40F2E2430093FA234A
:10023C00B4220021FFF784FF03460A4A1360002111
:10024C00002000F0F1FA01220749054800F082FB7A
:10025C0000F046FA00E000BF1837BD4680BD00BF75
:10026C00880000208C0000200000002080B500AF2A
:10027C0000F0A4FD00F01EF800F026F900F0FAF8EA
:10028C0000F082F800F052F80421074802F0BEFB9F
:10029C0008220649064803F037F900F05DF90348D7
:1002AC00FFF76AFFFBE700BFE4000020800000209E
:1002BC002C01002080B590B000AF07F11803282264
:1002CC000021184603F0E4FE3B1D00221A605A6020
:1002DC009A60DA601A610223BB610123BB621023AE
:1002EC00FB6200237B6307F11803184601F0D6FE6E
:1002FC000346002B01D000F029F90F237B6000236B
:10030C00BB600023FB6000233B6100237B613B1D32
:10031C000021184602F044F90346002B01D000F0EE
:10032C0015F900BF4037BD4680BD000080B500AF59
:10033C00124B134A1A60114B124A5A600F4B00228F
:10034C009A600E4B0022DA600C4B4FF480421A611B
:10035C000A4B00225A61094B00229A61074B00227A
:10036C00DA61064B00221A62044801F0CDF803460C
:10037C00002B01D000F0EAF800BF80BD90000020F7
:10038C0000540040801A060080B58EB000AF07F113
:10039C00280300221A605A609A60DA6007F1200381
:1003AC0000221A605A603B1D00221A605A609A6043
:1003BC00DA601A615A619A612D4B4FF080421A60D3
:1003CC002B4B0F225A602A4B00229A60284B42F288
:1003DC000F72DA60264B00221A61254B00229A61BB
:1003EC00234802F06BFA0346002B01D000F0AEF864
:1003FC004FF48053BB6207F1280319461C4802F0E6
:10040C0069FC0346002B01D000F0A0F8184802F05C
:10041C00A4FA0346002B01D000F098F800233B62AD
:10042C0000237B6207F120031946114802F0BEFF3E
:10043C000346002B01D000F089F860237B60002379
:10044C00BB600023FB6000237B613B1D042219462B
:10045C00074802F07DFB0346002B01D000F076F834
:10046C00034800F0C9FB00BF3837BD4680BD00BF54
:10047C00E400002080B500AF114B124A1A60104BFB
:10048C004FF416525A600E4B00229A600C4B00220D
:10049C00DA600B4B00221A61094B0C225A61084B93
:1004AC0000229A61064B0022DA61054802F0DCFF5B
:1004BC000346002B01D000F049F800BF80BD00BFFF
:1004CC002C0100200038014080B483B000AF0E4BEB
:1004DC009B690D4A43F0040393610B4B9B6903F03A
:1004EC0004037B607B68084B9B69074A43F0080355
:1004FC009361054B9B6903F008033B603B6800BFAD
:10050C000C37BD4680BC70470010024080B582B0ED
:10051C0000AF78607B681B68094A93420BD100F0EE
:10052C003EFA08220021074803F0B2FD08220549D3
:10053C00054802F0E9FF00BF0837BD4680BD00BF8B
:10054C0000380140800000202C01002080B400AF56
:10055C0072B600BFFEE7000080B582B000AF00F0BD
:10056C0027FA44F62063012278215B4801F00EFA49
:10057C000346002B01D00023A9E040F6C4137B6096
:10058C0002E07B68013B7B607B68002BF9D1AE22DB
:10059C000021782000F086FA20220021782000F03B
:1005AC0081FA10220021782000F07CFAB022002180
:1005BC00782000F077FAC8220021782000F072FA37
:1005CC0000220021782000F06DFA10220021782002
:1005DC0000F068FA40220021782000F063FA8122B2
:1005EC000021782000F05EFAFF220021782000F034
:1005FC0059FAA1220021782000F054FAA6220021F9
:10060C00782000F04FFAA8220021782000F04AFA56
:10061C003F220021782000F045FAA4220021782006
:10062C0000F040FAD3220021782000F03BFA00229F
:10063C000021782000F036FAD5220021782000F035
:10064C0031FAF0220021782000F02CFAD922002176
:10065C00782000F027FA22220021782000F022FADC
:10066C00DA220021782000F01DFA122200217820D5
:10067C0000F018FADB220021782000F013FA202277
:10068C000021782000F00EFA8D220021782000F055
:10069C0009FA14220021782000F004FAAF2200217C
:1006AC00782000F0FFF92E220021782000F0FAF9D2
:1006BC00002000F043F800F013F8084B00221A80D9
:1006CC00064B00225A80054B01225A710123184611
:1006DC000837BD4680BD00BF900000207405002087
:1006EC0080B582B000AF0023FB711DE0FB79503B5D
:1006FC00DBB21A460021782000F0D4F90022002148
:10070C00782000F0CFF910220021782000F0CAF9EF
:10071C00FB79DB01084A1A4480234021782000F041
:10072C005BF9FB790133FB71FB79072BDED900BF39
:10073C0000BF0837BD4680BD7401002080B582B073
:10074C0000AF0346FB71FB79002B01D1002300E0C5
:10075C00FF234FF480621946034803F099FC00BF55
:10076C000837BD4680BD00BF7401002080B483B043
:10077C0000AF0346FB800B46BB801346FB70FB8827
:10078C007F2B48D8BB883F2B45D8254B1B79002B9A
:10079C0006D0FB78002B0CBF01230023DBB2FB70CF
:1007AC00FB78012B1AD1FA88BB88DB0898B2034678
:1007BC00DB0113441B4AD35C5AB2BB8803F007031A
:1007CC00012101FA03F35BB2134359B2FA880346D1
:1007DC00DB011344C9B2134AD1541DE0FA88BB881B
:1007EC00DB0898B20346DB0113440E4AD35C5AB2C1
:1007FC00BB8803F00703012101FA03F35BB2DB436F
:10080C005BB2134059B2FA880346DB011344C9B2F8
:10081C00044AD15400E000BF0C37BD4680BC704781
:10082C00740500207401002080B483B000AF03462F
:10083C000A46FB801346BB80054AFB881380044A9A
:10084C00BB88538000BF0C37BD4680BC704700BFCF
:10085C007405002080B586B000AF03463960FB718B
:10086C001346BB713A4B1B881A463B681B781344E2
:10087C007F2B07DC364B5B881A463B685B7813444E
:10088C003F2B01DD00235EE000237B614BE03B68E6
:10089C005A68FB79203B3968497801FB03F3194608
:1008AC007B690B445B0013441B88FB6000233B619A
:1008BC0030E0FA683B6902FA03F303F40043002BBF
:1008CC0010D0234B1A883B699BB2134498B2204B2F
:1008DC005A887B699BB213449BB2BA791946FFF7CD
:1008EC0045FF14E01A4B1A883B699BB2134498B22B
:1008FC00174B5A887B699BB2134499B2BB79002B76
:10090C000CBF01230023DBB21A46FFF72FFF3B6914
:10091C0001333B613B681B781A463B699342C8D351
:10092C007B6901337B613B685B781A467B69934238
:10093C00ADD3074B1A883B681B789BB213449AB211
:10094C00034B1A80FB7918461837BD4680BD00BF93
:10095C007405002080B584B000AFF860B960134610
:10096C00FB7112E0FB681B78FA79B9681846FFF73F
:10097C0071FF03461A46FB681B789A4202D0FB684B
:10098C001B7808E0FB680133FB60FB681B78002BCD
:10099C00E8D1FB681B7818461037BD4680BD80B582
:1009AC0000AF0020FFF7CAFEFFF79AFE00BF80BD24
:1009BC0080B483B000AF074B7B6002E07B68013BE7
:1009CC007B607B68002BF9D100BF00BF0C37BD46A4
:1009DC0080BC704790D0030090B5C7B002AF0446FE
:1009EC00084607F58871A1F588710A60194607F564
:1009FC008873A3F2091322461A7007F58873A3F5BE
:100A0C00857302461A7007F58873A3F586730A4638
:100A1C001A8007F58873A3F5827307F58872A2F51F
:100A2C00857212781A70002387F80F3115E097F849
:100A3C000F3107F58872A2F5887212681A4497F87C
:100A4C000F310133117807F58872A2F58272D154F7
:100A5C0097F80F31013387F80F3197F80F319BB2AC
:100A6C0007F58872A2F5867212889A42DFD807F5CC
:100A7C008873A3F209131B7899B207F58873A3F551
:100A8C0086731B8801339BB207F10C020A2000907D
:100A9C00034800F07DFE00BF07F58A77BD4690BD88
:100AAC009000002080B586B002AF0346FB710B4668
:100ABC00BB7113467B71BB793B737B797B73FB7981
:100ACC0099B207F10C020A2300930223034800F0A9
:100ADC005FFE00BF1037BD4680BD00BF90000020F8
:100AEC0080B485B000AF154B9B69144A43F00103E9
:100AFC009361124B9B6903F00103BB60BB680F4B06
:100B0C00DB690E4A43F08053D3610C4BDB6903F075
:100B1C0080537B607B680A4B5B68FB60FB6823F04F
:100B2C00E063FB60FB6843F00073FB60044AFB6806
:100B3C00536000BF1437BD4680BC704700100240A4
:100B4C000000014080B588B000AF786007F1100359
:100B5C0000221A605A609A60DA607B681B68154A3A
:100B6C00934223D1144B9B69134A43F008039361BE
:100B7C00114B9B6903F00803FB60FB68C0233B61CE
:100B8C0012237B610323FB6107F1100319460B4809
:100B9C0000F036FB084BDB69074A43F40013D361C2
:100BAC00054BDB6903F40013BB60BB6800BF203747
:100BBC00BD4680BD0054004000100240000C0140B6
:100BCC0080B485B000AF78607B681B68B3F1804F50
:100BDC000BD1084BDB69074A43F00103D361054B8A
:100BEC00DB6903F00103FB60FB6800BF1437BD46F3
:100BFC0080BC70470010024080B588B000AF7860B0
:100C0C0007F1100300221A605A609A60DA607B6860
:100C1C001B68B3F1804F17D10D4B9B690C4A43F005
:100C2C00040393610A4B9B6903F00403FB60FB68AC
:100C3C0002233B6102237B610223FB6107F110035A
:100C4C001946044800F0DCFA00BF2037BD4680BDD1
:100C5C00001002400008014080B588B000AF7860F9
:100C6C0007F1100300221A605A609A60DA607B6800
:100C7C001B68204A934239D11F4B9B691E4A43F48F
:100C8C00804393611C4B9B6903F48043FB60FB68BE
:100C9C00194B9B69184A43F004039361164B9B69EB
:100CAC0003F00403BB60BB684FF400733B61022389
:100CBC007B610323FB6107F1100319460F4800F019
:100CCC009FFA4FF480633B6100237B610023BB617F
:100CDC0007F110031946094800F092FA002200218E
:100CEC00252000F0A4F9252000F0BDF900BF203725
:100CFC00BD4680BD00380140001002400008014094
:100D0C0080B400AFFEE780B400AFFEE780B400AF64
:100D1C00FEE780B400AFFEE780B400AFFEE780B41E
:100D2C0000AF00BFBD4680BC704780B400AF00BFB1
:100D3C00BD4680BC704780B400AF00BFBD4680BCD0
:100D4C00704780B500AF00F07FF800BF80BD000099
:100D5C0080B500AF024802F0FDFB00BF80BD00BFB4
:100D6C002C01002080B400AF00BFBD4680BC704792
:100D7C00FFF7F8FF0B480C490C4A002302E0D4584B
:100D8C00C4500433C4188C42F9D3094A094C0023CB
:100D9C0001E013600432A242FBD303F087F9FFF7A2
:100DAC0065FA70470000002064000020C44F000862
:100DBC0064000020B8060020FEE7000080B500AFFC
:100DCC00084B1B68074A43F010031360032000F024
:100DDC0023F90F2000F008F8FFF782FE00231846D5
:100DEC0080BD00BF0020024080B582B000AF7860AB
:100DFC00124B1A68124B1B7819464FF47A73B3FBDB
:100E0C00F1F3B2FBF3F3184600F03BF90346002B69
:100E1C0001D001230EE07B680F2B0AD800227968E1
:100E2C004FF0FF3000F003F9064A7B681360002393
:100E3C0000E0012318460837BD4680BD080000209D
:100E4C00100000200C00002080B400AF054B1B7874
:100E5C001A46054B1B681344034A136000BFBD467A
:100E6C0080BC7047100000207C05002080B400AFCF
:100E7C00024B1B681846BD4680BC70477C050020A1
:100E8C0080B485B000AF78607B6803F00703FB602B
:100E9C000C4BDB68BB60BA684FF6FF031340BB60BA
:100EAC00FB681A02BB68134343F0BF6343F400337F
:100EBC00BB60044ABB68D36000BF1437BD4680BC1E
:100ECC00704700BF00ED00E080B400AF044BDB685E
:100EDC001B0A03F007031846BD4680BC704700BFD1
:100EEC0000ED00E080B483B000AF0346FB7197F9CE
:100EFC000730002B0BDBFB7903F01F02064997F937
:100F0C0007305B09012000FA02F241F8232000BFF0
:100F1C000C37BD4680BC704700E100E080B483B064
:100F2C0000AF03463960FB7197F90730002B0ADBE1
:100F3C003B68DAB20C4997F907301201D2B20B4474
:100F4C0083F800230AE03B68DAB20849FB7903F026
:100F5C000F03043B1201D2B20B441A7600BF0C37BC
:100F6C00BD4680BC704700BF00E100E000ED00E032
:100F7C0080B489B000AFF860B9607A60FB6803F0A8
:100F8C000703FB61FB69C3F10703042B28BF042390
:100F9C00BB61FB690433062B02D9FB69033B00E000
:100FAC0000237B614FF0FF32BB6902FA03F3DA4393
:100FBC00BB681A407B699A404FF0FF317B6901FA9C
:100FCC0003F3D9437B680B40134318462437BD46C3
:100FDC0080BC704780B582B000AF78607B68013B05
:100FEC00B3F1807F01D301230FE00A4A7B68013BF8
:100FFC0053600F214FF0FF30FFF790FF054B00229D
:10100C009A60044B07221A60002318460837BD4625
:10101C0080BD00BF10E000E080B582B000AF78600A
:10102C007868FFF72DFF00BF0837BD4680BD80B53F
:10103C0086B000AF0346B9607A60FB7300237B6116
:10104C00FFF742FF78617A68B9687869FFF790FF1B
:10105C00024697F90F3011461846FFF75FFF00BFA5
:10106C001837BD4680BD80B582B000AF0346FB711A
:10107C0097F907301846FFF735FF00BF0837BD4614
:10108C0080BD80B582B000AF78607868FFF7A2FFB2
:10109C00034618460837BD4680BD80B485B000AF06
:1010AC0078600023FB737B6893F82130DBB2022B52
:1010BC0008D07B6804229A637B68002283F8202086
:1010CC00012320E07B681B681A687B681B6822F090
:1010DC000E021A607B681B681A687B681B6822F01A
:1010EC0001021A607B681A6C7B68DB6B012101FAC8
:1010FC0002F25A607B68012283F821207B6800226F
:10110C0083F82020FB7B18461437BD4680BC704703
:10111C0080B584B000AF78600023FB737B6893F8D4
:10112C002130DBB2022B05D07B6804229A630123A9
:10113C00FB7351E07B681B681A687B681B6822F0A4
:10114C000E021A607B681B681A687B681B6822F0A9
:10115C0001021A607B681B68224A934229D07B6883
:10116C001B68214A934222D07B681B681F4A93421A
:10117C001AD07B681B681E4A934212D07B681B688E
:10118C001C4A93420AD07B681B681B4A934202D1CB
:10119C004FF480130EE04FF080730BE04FF480336C
:1011AC0008E04FF4805305E04FF4807302E0102305
:1011BC0000E00123114A53607B68012283F821204F
:1011CC007B68002283F820207B685B6B002B03D0AC
:1011DC007B685B6B78689847FB7B18461037BD467D
:1011EC0080BD00BF080002401C00024030000240DD
:1011FC0044000240580002406C00024000000240D3
:10120C0080B48BB000AF7860396000237B62002320
:10121C003B6269E101227B6A02FA03F3FB613B68E2
:10122C001B68FA691340BB61BA69FB699A4240F0CA
:10123C0058813B685B689A4A93425ED0984A9342C5
:10124C0075D8984A934258D0964A93426FD8964A8A
:10125C00934252D0944A934269D8944A93424CD0C8
:10126C00924A934263D8924A934246D0904A934210
:10127C005DD8122B2AD8122B59D801A252F823F080
:10128C0007130008E1120008F312000835130008D8
:10129C003B1300083B1300083B1300083B130008EA
:1012AC003B1300083B1300083B1300083B130008DA
:1012BC003B1300083B1300083B1300083B130008CA
:1012CC003B130008E9120008FD120008794A93420A
:1012DC0013D02CE03B68DB683B6229E03B68DB68A1
:1012EC0004333B6224E03B68DB6808333B621FE05D
:1012FC003B68DB680C333B621AE03B689B68002B55
:10130C0002D104233B6213E03B689B68012B05D19F
:10131C0008233B627B68FA691A6109E008233B6287
:10132C007B68FA695A6103E000233B6200E000BF6E
:10133C00BB69FF2B01D87B6801E07B6804337B61C0
:10134C00BB69FF2B02D87B6A9B0002E07B6A083BDF
:10135C009B003B617B691A680F213B6901FA03F31F
:10136C00DB431A40396A3B6901FA03F31A437B6980
:10137C001A603B685B6803F08053002B00F0B1806F
:10138C004D4B9B694C4A43F0010393614A4B9B695B
:10139C0003F00103BB60BB68484A7B6A9B080233BD
:1013AC0052F82330FB607B6A03F003039B000F228F
:1013BC0002FA03F3DB43FA681340FB607B68404A94
:1013CC00934213D07B683F4A93420DD07B683E4AD0
:1013DC00934207D07B683D4A934201D1032306E038
:1013EC00042304E0022302E0012300E000237A6AD4
:1013FC0002F0030292009340FA681343FB602F49FA
:10140C007B6A9B080233FA6841F823203B685B68CF
:10141C0003F48013002B06D02D4B9A682C49BB6922
:10142C0013438B6006E02A4B9A68BB69DB4328495F
:10143C0013408B603B685B6803F40013002B06D0F1
:10144C00234BDA682249BB691343CB6006E0204B7F
:10145C00DA68BB69DB431E491340CB603B685B68B1
:10146C0003F40033002B06D0194B5A681849BB699A
:10147C0013434B6006E0164B5A68BB69DB431449B7
:10148C0013404B603B685B6803F48033002B21D026
:10149C000F4B1A680E49BB6913430B6021E000BF68
:1014AC00000032100000311000002210000021104A
:1014BC00000012100000111000100240000001404A
:1014CC0000080140000C01400010014000140140D4
:1014DC00000401400B4B1A68BB69DB4309491340FC
:1014EC000B607B6A01337B623B681A687B6A22FA69
:1014FC0003F3002B7FF48EAE00BF00BF2C37BD462C
:10150C0080BC70470004014080B584B000AF7860A7
:10151C007B68002B01D101232BE17B6893F83D30D4
:10152C00DBB2002B06D17B68002283F83C20786864
:10153C00FFF708FB7B68242283F83D207B681B683F
:10154C001A687B681B6822F001021A607B681B68B2
:10155C001A687B681B6842F400421A607B681B683F
:10156C001A687B681B6822F400421A6001F060F96B
:10157C00F8607B685B68814A934207D8FB68804AB5
:10158C00934294BF01230023DBB206E0FB687D4A43
:10159C00934294BF01230023DBB2002B01D0012323
:1015AC00E7E0FB68784AA2FB03239B0CBB607B68DB
:1015BC001B685B6823F03F017B681B68BA680A43B1
:1015CC005A607B681B681B6A23F03F017B685B6871
:1015DC006A4A934202D8BB68013309E0BB684FF4F6
:1015EC00967202FB03F3694AA2FB03239B090133A6
:1015FC007A6812680B4313627B681B68DB6923F4FF
:10160C004F4222F0FF027B685B685C498B4219D821
:10161C00FB68591E7B685B685B00B1FBF3F3591CDC
:10162C0040F6FC730B40002B0AD0FB68591E7B68FC
:10163C005B685B00B1FBF3F30133C3F30B0351E0C5
:10164C0004234FE07B689B68002B11D1FB68581E6C
:10165C007B6859680B465B000B44B0FBF3F301331A
:10166C00C3F30B03002B0CBF01230023DBB212E0EE
:10167C00FB68581E7B6859680B469B000B4499000D
:10168C000B44B0FBF3F30133C3F30B03002B0CBF80
:10169C0001230023DBB2002B01D0012322E07B6865
:1016AC009B68002B0ED1FB68581E7B6859680B4653
:1016BC005B000B44B0FBF3F30133C3F30B0343F4B4
:1016CC0000430FE0FB68581E7B6859680B469B0073
:1016DC000B4499000B44B0FBF3F30133C3F30B033E
:1016EC0043F44043796809681343CB617B681B68FA
:1016FC001B6823F0C0017B68DA697B681B6A1A439C
:10170C007B681B680A431A607B681B689B6823F420
:10171C00034323F0FF037A6811697A68D268114396
:10172C007A6812680B4393607B681B68DB6823F054
:10173C00FF017B685A697B689B691A437B681B684D
:10174C000A43DA607B681B681A687B681B6842F086
:10175C0001021A607B6800221A647B68202283F8DD
:10176C003D207B6800221A637B68002283F83E20B0
:10177C00002318461037BD4680BD00BFA08601006F
:10178C007F841E00FF083D0083DE1B43D34D621097
:10179C0080B588B002AFF8607A601A460B467B8140
:1017AC0013463B81FFF762FB7861FB6893F83D3091
:1017BC00DBB2202B40F0E0807B69009319230122DF
:1017CC007049F86800F092FA0346002B01D002230E
:1017DC00D3E0FB6893F83C30012B01D10223CCE021
:1017EC00FB68012283F83C20FB681B681B6803F034
:1017FC000103012B07D0FB681B681A68FB681B6888
:10180C0042F001021A60FB681B681A68FB681B68CF
:10181C0022F400621A60FB68212283F83D20FB68E9
:10182C00102283F83E20FB6800221A64FB687A6859
:10183C005A62FB683A895A85FB685B8D9AB2FB68E1
:10184C001A85FB68504ADA6279897B693A6AF868CA
:10185C0000F0CAF90346002B01D001238DE00023D0
:10186C003B61FB681B685B693B61FB681B689B69A0
:10187C003B613B6966E07A69396AF86800F050FBB5
:10188C000346002B0DD0FB681B6C042B07D1FB68A7
:10189C001B681A68FB681B6842F400721A6001230B
:1018AC006BE0FB685B6A1A78FB681B681A61FB6863
:1018BC005B6A5A1CFB685A62FB685B8D9BB2013BEE
:1018CC009AB2FB685A85FB681B8D013B9AB2FB6888
:1018DC001A85FB681B685B6903F00403042B1BD19E
:1018EC00FB681B8D002B17D0FB685B6A1A78FB68B2
:1018FC001B681A61FB685B6A5A1CFB685A62FB68BE
:10190C005B8D9BB2013B9AB2FB685A85FB681B8DC1
:10191C00013B9AB2FB681A857A69396AF86800F05B
:10192C0047FB0346002B0DD0FB681B6C042B07D127
:10193C00FB681B681A68FB681B6842F400721A602B
:10194C0001231AE0FB681B8D002B94D1FB681B68EC
:10195C001A68FB681B6842F400721A60FB6820224C
:10196C0083F83D20FB68002283F83E20FB680022B0
:10197C0083F83C20002300E0022318461837BD46AC
:10198C0080BD00BF020010000000FFFF80B58AB0D0
:10199C0002AFF8607A603B600B467B81FFF766FA1A
:1019AC00F8610023BB61FB6893F83D30DBB2202B60
:1019BC0040F01181FB690093192301228849F868D2
:1019CC0000F094F90346002B01D0022304E1FB68DC
:1019DC0093F83C30012B01D10223FDE0FB6801227E
:1019EC0083F83C20FB681B681B6803F00103012B88
:1019FC0007D0FB681B681A68FB681B6842F0010281
:101A0C001A60FB681B681A68FB681B6822F400628A
:101A1C001A60FB68242283F83D20FB6800221A64BC
:101A2C00FB68704ADA62FB681B681A68FB681B6803
:101A3C0042F480721A60FB6900933B6800224FF0FD
:101A4C000111F86800F052F90346002B0DD0FB6829
:101A5C001B681B6803F48073B3F5807F03D1FB68AC
:101A6C004FF400721A640323B6E07B89DBB21A468A
:101A7C00FB681B6802F0FE021A61FFF7F7F9F861C8
:101A8C00FB681B685B6903F00203022B0CBF01238C
:101A9C000023DBB2FB75FB681B685B6903F4806396
:101AAC00B3F5806F0CBF01230023DBB2BB7525E0BF
:101ABC00FFF7DCF90246FB69D31A3A689A4202D363
:101ACC003B68002B03D1FB68A02283F83D20FB6808
:101ADC001B685B6903F00203022B0CBF012300237C
:101AEC00DBB2FB75FB681B685B6903F48063B3F5C1
:101AFC00806F0CBF01230023DBB2BB75FB6893F82E
:101B0C003D30DBB2A02B05D0FB7D002B02D1BB7D81
:101B1C00002BCDD0FB68202283F83D20FB681B688E
:101B2C005B6903F00203022B29D1FB681B681A685E
:101B3C00FB681B6842F400721A6000233B61FB686F
:101B4C001B685B693B61FB681B689B693B613B697C
:101B5C00FB690093192301222149F86800F0C6F8AB
:101B6C000346002B01D0012336E0FB68202283F8CA
:101B7C003D20FB68002283F83C2000232CE0FB680E
:101B8C001B681A68FB681B6842F400721A60FB68D9
:101B9C001B686FF480625A61FB6900931923012260
:101BAC000F49F86800F0A2F80346002B01D001237E
:101BBC0012E0BB690133BB61BA697B689A42FFF4DE
:101BCC0032AFFB68202283F83D20FB68002283F8AB
:101BDC003C20012300E0022318462037BD4680BD7F
:101BEC00020010000000FFFF80B588B002AFF86063
:101BFC007A603B600B467B81FB68DB6A7B617B69AF
:101C0C00082B06D07B69012B03D07B6913F5803F31
:101C1C0008D1FB681B681A68FB681B6842F4807269
:101C2C001A600BE0FB681B6B122B07D1FB681B685F
:101C3C001A68FB681B6842F480721A603B68009358
:101C4C007B6800224FF00111F86800F04FF8034652
:101C5C00002B0DD0FB681B681B6803F48073B3F575
:101C6C00807F03D1FB684FF400721A64032335E0C4
:101C7C00FB681B69B3F5804F08D17B89DBB21A4630
:101C8C00FB681B6802F0FE021A611BE07B89DB110A
:101C9C00DBB203F00603DBB263F00F03DAB2FB68CE
:101CAC001B681A613B687A680E49F86800F098F86E
:101CBC000346002B01D0012310E07B89DAB2FB68CC
:101CCC001B681A613B687A680749F86800F088F865
:101CDC000346002B01D0012300E0002318461837DF
:101CEC00BD4680BD080001000200010080B584B033
:101CFC0000AFF860B9603B601346FB7148E03B688D
:101D0C00B3F1FF3F44D0FFF7B1F80246BB69D31AD9
:101D1C003A689A4202D33B68002B39D1BB681B0C42
:101D2C00DBB2012B0DD1FB681B685B69DA43BB6826
:101D3C0013409BB2002B0CBF01230023DBB21A46CD
:101D4C000CE0FB681B689B69DA43BB6813409BB2D1
:101D5C00002B0CBF01230023DBB21A46FB799A42FD
:101D6C0016D1FB6800221A63FB68202283F83D2001
:101D7C00FB68002283F83E20FB681B6C43F02002BA
:101D8C00FB681A64FB68002283F83C20012323E0E3
:101D9C00BB681B0CDBB2012B0DD1FB681B685B69AC
:101DAC00DA43BB6813409BB2002B0CBF012300230A
:101DBC00DBB21A460CE0FB681B689B69DA43BB6814
:101DCC0013409BB2002B0CBF01230023DBB21A463D
:101DDC00FB799A4293D0002318461037BD4680BD3C
:101DEC0080B584B000AFF860B9607A603B6071E098
:101DFC00FB681B685B6903F48063B3F5806F23D1C8
:101E0C00FB681B681A68FB681B6842F400721A6056
:101E1C00FB681B686FF480625A61FB6800221A63CE
:101E2C00FB68202283F83D20FB68002283F83E20CB
:101E3C00FB681B6C43F00402FB681A64FB6800220D
:101E4C0083F83C20012367E07B68B3F1FF3F41D06E
:101E5C00FFF70CF802463B68D31A7A689A4202D311
:101E6C007B68002B36D1BB681B0CDBB2012B0CD171
:101E7C00FB681B685B69DA43BB6813409BB2002BA1
:101E8C0014BF01230023DBB20BE0FB681B689B69CA
:101E9C00DA43BB6813409BB2002B14BF0123002311
:101EAC00DBB2002B16D0FB6800221A63FB682022E1
:101EBC0083F83D20FB68002283F83E20FB681B6CF6
:101ECC0043F02002FB681A64FB68002283F83C2074
:101EDC00012321E0BB681B0CDBB2012B0CD1FB688E
:101EEC001B685B69DA43BB6813409BB2002B14BFC1
:101EFC0001230023DBB20BE0FB681B689B69DA4310
:101F0C00BB6813409BB2002B14BF01230023DBB230
:101F1C00002B7FF46DAF002318461037BD4680BDF3
:101F2C0080B584B000AFF860B9607A6034E0F868CE
:101F3C0000F086F80346002B01D0012334E0BB6887
:101F4C00B3F1FF3F28D0FEF791FF02467B68D31A0E
:101F5C00BA689A4202D3BB68002B1DD1FB681B6880
:101F6C005B6903F08003802B16D0FB6800221A6398
:101F7C00FB68202283F83D20FB68002283F83E207A
:101F8C00FB681B6C43F02002FB681A64FB680022A0
:101F9C0083F83C20012307E0FB681B685B6903F0B6
:101FAC008003802BC3D1002318461037BD4680BD5B
:101FBC0080B584B000AFF860B9607A6034E0F8683E
:101FCC0000F03EF80346002B01D0012334E0BB683F
:101FDC00B3F1FF3F28D0FEF749FF02467B68D31AC6
:101FEC00BA689A4202D3BB68002B1DD1FB681B68F0
:101FFC005B6903F00403042B16D0FB6800221A6300
:10200C00FB68202283F83D20FB68002283F83E20E9
:10201C00FB681B6C43F02002FB681A64FB6800220F
:10202C0083F83C20012307E0FB681B685B6903F025
:10203C000403042BC3D1002318461037BD4680BDC2
:10204C0080B483B000AF78607B681B685B6903F475
:10205C008063B3F5806F1BD17B681B686FF4806263
:10206C005A617B6800221A637B68202283F83D202A
:10207C007B68002283F83E207B681B6C43F00402D3
:10208C007B681A647B68002283F83C20012300E003
:10209C00002318460C37BD4680BC704780B586B00F
:1020AC0000AF78607B68002B01D1012372E27B6862
:1020BC001B6803F00103002B00F08780924B5B68D8
:1020CC0003F00C03042B0CD08F4B5B6803F00C0358
:1020DC00082B12D18C4B5B6803F48033B3F5803F33
:1020EC000BD1894B1B6803F40033002B6CD07B683D
:1020FC005B68002B68D101234CE27B685B68B3F50D
:10210C00803F06D1804B1B687F4A43F480331360B9
:10211C002EE07B685B68002B0CD17B4B1B687A4AEA
:10212C0023F480331360784B1B68774A23F48023A5
:10213C0013601DE07B685B68B3F5A02F0CD1724B6C
:10214C001B68714A43F4802313606F4B1B686E4A03
:10215C0043F4803313600BE06B4B1B686A4A23F427
:10216C0080331360684B1B68674A23F48023136029
:10217C007B685B68002B13D0FEF778FE386108E0B3
:10218C00FEF774FE02463B69D31A642B01D9032374
:10219C0000E25D4B1B6803F40033002BF0D014E01D
:1021AC00FEF764FE386108E0FEF760FE02463B690C
:1021BC00D31A642B01D90323ECE1534B1B6803F4B2
:1021CC000033002BF0D100E000BF7B681B6803F0EC
:1021DC000203002B63D04C4B5B6803F00C03002B09
:1021EC000BD0494B5B6803F00C03082B1CD1464BFE
:1021FC005B6803F48033002B16D1434B1B6803F050
:10220C000203002B05D07B681B69012B01D0012335
:10221C00C0E13D4B1B6823F0F8027B685B69DB0077
:10222C00394913430B603AE07B681B69002B20D0C3
:10223C00364B01221A60FEF719FE386108E0FEF7F2
:10224C0015FE02463B69D31A022B01D90323A1E1E7
:10225C002D4B1B6803F00203002BF0D02A4B1B689C
:10226C0023F0F8027B685B69DB00274913430B60A2
:10227C0015E0264B00221A60FEF7F8FD386108E0E5
:10228C00FEF7F4FD02463B69D31A022B01D9032356
:10229C0080E11D4B1B6803F00203002BF0D17B681F
:1022AC001B6803F00803002B3AD07B689B69002B5A
:1022BC0019D0174B01221A60FEF7D8FD386108E0DF
:1022CC00FEF7D4FD02463B69D31A022B01D9032336
:1022DC0060E10D4B5B6A03F00203002BF0D0012090
:1022EC0000F0CEFA1CE00A4B00221A60FEF7BEFD8D
:1022FC0038610FE0FEF7BAFD02463B69D31A022B98
:10230C0008D9032346E100BF0010024000004242FE
:10231C0080044242924B5B6A03F00203002BE9D12A
:10232C007B681B6803F00403002B00F0A6800023DD
:10233C00FB758B4BDB6903F08053002B0DD1884B65
:10234C00DB69874A43F08053D361854BDB6903F02B
:10235C008053BB60BB680123FB75824B1B6803F485
:10236C008073002B18D17F4B1B687E4A43F480731B
:10237C001360FEF77BFD386108E0FEF777FD02463F
:10238C003B69D31A642B01D9032303E1754B1B68FA
:10239C0003F48073002BF0D07B68DB68012B06D133
:1023AC006F4B1B6A6E4A43F0010313622DE07B688E
:1023BC00DB68002B0CD16A4B1B6A694A23F00103C2
:1023CC001362674B1B6A664A23F0040313621CE01A
:1023DC007B68DB68052B0CD1614B1B6A604A43F0B0
:1023EC00040313625E4B1B6A5D4A43F001031362E4
:1023FC000BE05B4B1B6A5A4A23F001031362584BE8
:10240C001B6A574A23F0040313627B68DB68002BBA
:10241C0015D0FEF72BFD38610AE0FEF727FD0246CA
:10242C003B69D31A41F28832934201D90323B1E0BC
:10243C004B4B1B6A03F00203002BEED014E0FEF7AB
:10244C0015FD38610AE0FEF711FD02463B69D31A0F
:10245C0041F28832934201D903239BE0404B1B6A23
:10246C0003F00203002BEED1FB7D012B05D13C4B7D
:10247C00DB693B4A23F08053D3617B68DB69002B1B
:10248C0000F08780364B5B6803F00C03082B61D09F
:10249C007B68DB69022B46D1334B00221A60FEF7B6
:1024AC00E5FC386108E0FEF7E1FC02463B69D31A13
:1024BC00022B01D903236DE0294B1B6803F0007339
:1024CC00002BF0D17B681B6AB3F5803F08D1244BFD
:1024DC005B6823F400327B689B68214913434B6093
:1024EC001F4B5B6823F474127B68196A7B685B6A08
:1024FC000B431B4913434B601B4B01221A60FEF725
:10250C00B5FC386108E0FEF7B1FC02463B69D31A12
:10251C00022B01D903233DE0114B1B6803F0007320
:10252C00002BF0D035E0104B00221A60FEF79EFC19
:10253C00386108E0FEF79AFC02463B69D31A022B7D
:10254C0001D9032326E0064B1B6803F00073002B14
:10255C00F0D11EE07B68DB69012B07D1012319E068
:10256C000010024000700040600042420B4B5B6860
:10257C00FB60FB6803F480327B681B6A9A4206D1CD
:10258C00FB6803F470127B685B6A9A4201D00123EA
:10259C0000E0002318461837BD4680BD00100240ED
:1025AC0080B584B000AF786039607B68002B01D1B6
:1025BC000123D0E06A4B1B6803F007033A689A4288
:1025CC0010D9674B1B6823F0070265493B6813431E
:1025DC000B60634B1B6803F007033A689A4201D007
:1025EC000123B8E07B681B6803F00203002B20D0AA
:1025FC007B681B6803F00403002B05D0594B5B6808
:10260C00584A43F4E06353607B681B6803F008038B
:10261C00002B05D0534B5B68524A43F46053536014
:10262C00504B5B6823F0F0027B689B684D49134369
:10263C004B607B681B6803F00103002B40D07B6868
:10264C005B68012B07D1474B1B6803F40033002B4D
:10265C0015D101237FE07B685B68022B07D1414BCE
:10266C001B6803F00073002B09D1012373E03D4B71
:10267C001B6803F00203002B01D101236BE0394BE3
:10268C005B6823F003027B685B68364913434B603D
:10269C00FEF7ECFBF8600AE0FEF7E8FB0246FB688D
:1026AC00D31A41F28832934201D9032353E02D4BC4
:1026BC005B6803F00C027B685B689B009A42EBD171
:1026CC00274B1B6803F007033A689A4210D2244B3D
:1026DC001B6823F0070222493B6813430B60204B15
:1026EC001B6803F007033A689A4201D0012332E0D9
:1026FC007B681B6803F00403002B08D0194B5B6844
:10270C0023F4E0627B68DB68164913434B607B68FB
:10271C001B6803F00803002B09D0124B5B6823F4F1
:10272C0060527B681B69DB000E4913434B6000F061
:10273C0021F802460B4B5B681B0903F00F030A4997
:10274C00CB5C22FA03F3094A1360094B1B68184649
:10275C00FEF74AFB002318461037BD4680BD00BF6C
:10276C000020024000100240904E0008080000209B
:10277C000C00002080B487B000AF0023FB60002366
:10278C00BB6000237B6100237B6000233B611E4BFD
:10279C005B68FB60FB6803F00C03042B02D0082B76
:1027AC0003D027E0194B3B6127E0FB689B0C03F03F
:1027BC000F03174AD35C7B60FB6803F48033002B58
:1027CC0010D0114B5B685B0C03F00103114AD35C16
:1027DC00BB607B680D4A03FB02F2BB68B2FBF3F3F0
:1027EC007B6104E07B680C4A02FB03F37B617B6931
:1027FC003B6102E0054B3B6100BF3B6918461C374F
:10280C00BD4680BC704700BF0010024000127A0029
:10281C00A84E0008B84E000800093D0080B400AF77
:10282C00024B1B681846BD4680BC70470800002050
:10283C0080B500AFFFF7F2FF0246054B5B681B0A41
:10284C0003F007030349CB5C22FA03F3184680BD5F
:10285C0000100240A04E000880B500AFFFF7DEFF6D
:10286C000246054B5B68DB0A03F007030349CB5CAC
:10287C0022FA03F3184680BD00100240A04E000857
:10288C0080B485B000AF78600A4B1B680A4AA2FB83
:10289C0003235B0A7A6802FB03F3FB6000BFFB684F
:1028AC005A1EFA60002BF9D100BF00BF1437BD4689
:1028BC0080BC704708000020D34D621080B582B0F8
:1028CC0000AF78607B68002B01D1012341E07B686D
:1028DC0093F83D30DBB2002B06D17B68002283F8E5
:1028EC003C207868FEF76CF97B68022283F83D2067
:1028FC007B681A687B6804331946104600F0B2FAFC
:10290C007B68012283F846207B68012283F83E20F5
:10291C007B68012283F83F207B68012283F84020EA
:10292C007B68012283F841207B68012283F84220D6
:10293C007B68012283F843207B68012283F84420C2
:10294C007B68012283F845207B68012283F83D20B7
:10295C00002318460837BD4680BD80B582B000AF55
:10296C0078607B68002B01D1012341E07B6893F8F0
:10297C003D30DBB2002B06D17B68002283F83C2073
:10298C00786800F039F87B68022283F83D207B6878
:10299C001A687B6804331946104600F063FA7B68AA
:1029AC00012283F846207B68012283F83E207B6855
:1029BC00012283F83F207B68012283F840207B684A
:1029CC00012283F841207B68012283F842207B6836
:1029DC00012283F843207B68012283F844207B6822
:1029EC00012283F845207B68012283F83D200023D7
:1029FC0018460837BD4680BD80B483B000AF786000
:102A0C0000BF0C37BD4680BC7047000080B584B059
:102A1C0000AF786039603B68002B09D17B6893F874
:102A2C003E30DBB2012B14BF01230023DBB222E0CA
:102A3C003B68042B09D17B6893F83F30DBB2012B48
:102A4C0014BF01230023DBB215E03B68082B09D12E
:102A5C007B6893F84030DBB2012B14BF01230023B9
:102A6C00DBB208E07B6893F84130DBB2012B14BF7A
:102A7C0001230023DBB2002B01D001235EE03B6875
:102A8C00002B04D17B68022283F83E2013E03B68C4
:102A9C00042B04D17B68022283F83F200BE03B68B7
:102AAC00082B04D17B68022283F8402003E07B686A
:102ABC00022283F841207B681B6801223968184682
:102ACC0000F050FC7B681B681E4A934207D17B6860
:102ADC001B685A6C7B681B6842F400425A647B6822
:102AEC001B68184A93420ED07B681B68B3F1804F69
:102AFC0009D07B681B68144A934204D07B681B681E
:102B0C00124A934211D17B681B689B6803F0070340
:102B1C00FB60FB68062B10D07B681B681A687B680F
:102B2C001B6842F001021A6007E07B681B681A6898
:102B3C007B681B6842F001021A60002318461037AC
:102B4C00BD4680BD002C0140000400400008004040
:102B5C0080B586B000AFF860B9607A600023FB7571
:102B6C00FB6893F83C30012B01D10223AEE0FB68EB
:102B7C00012283F83C207B680C2B00F29F8001A281
:102B8C0052F823F0C52B0008C92C0008C92C0008EA
:102B9C00C92C0008052C0008C92C0008C92C0008F9
:102BAC00C92C0008472C0008C92C0008C92C0008A7
:102BBC00C92C0008872C0008FB681B68B9681846EC
:102BCC0000F0B2F9FB681B689A69FB681B6842F05D
:102BDC0008029A61FB681B689A69FB681B6822F003
:102BEC0004029A61FB681B689969BB681A69FB68E7
:102BFC001B680A439A6164E0FB681B68B968184655
:102C0C0000F0F8F9FB681B689A69FB681B6842F4D2
:102C1C0000629A61FB681B689A69FB681B6822F466
:102C2C0080629A61FB681B689969BB681B691A0210
:102C3C00FB681B680A439A6143E0FB681B68B96830
:102C4C00184600F041FAFB681B68DA69FB681B68E0
:102C5C0042F00802DA61FB681B68DA69FB681B68E2
:102C6C0022F00402DA61FB681B68D969BB681A6937
:102C7C00FB681B680A43DA6123E0FB681B68B968D0
:102C8C00184600F08BFAFB681B68DA69FB681B6856
:102C9C0042F40062DA61FB681B68DA69FB681B6846
:102CAC0022F48062DA61FB681B68D969BB681B6916
:102CBC001A02FB681B680A43DA6102E00123FB7508
:102CCC0000BFFB68002283F83C20FB7D18461837B8
:102CDC00BD4680BD80B584B000AF786039600023FC
:102CEC00FB737B6893F83C30012B01D10223B4E0D9
:102CFC007B68012283F83C207B68022283F83D200C
:102D0C007B681B689B68BB60BB6823F07703BB6068
:102D1C00BB6823F47F43BB607B681B68BA689A600E
:102D2C003B681B68B3F5005F3ED0B3F5005F00F263
:102D3C008780B3F5805F00F08680B3F5805F7FD825
:102D4C00702B1AD0702B7BD8602B50D0602B77D87F
:102D5C00502B3CD0502B73D8402B58D0402B6FD8D5
:102D6C00302B64D0302B6BD8202B60D0202B67D825
:102D7C00002B5CD0102B5AD062E07B6818683B6843
:102D8C0099683B685A683B68DB6800F0CCFA7B6852
:102D9C001B689B68BB60BB6843F07703BB607B68B8
:102DAC001B68BA689A604FE07B6818683B68996842
:102DBC003B685A683B68DB6800F0B5FA7B681B68B7
:102DCC009A687B681B6842F480429A603CE07B689E
:102DDC0018683B6859683B68DB681A4600F02CFAA7
:102DEC007B681B685021184600F083FA2CE07B6846
:102DFC0018683B6859683B68DB681A4600F04AFA69
:102E0C007B681B686021184600F073FA1CE07B6835
:102E1C0018683B6859683B68DB681A4600F00CFA86
:102E2C007B681B684021184600F063FA0CE07B6855
:102E3C001A683B681B681946104600F05AFA03E002
:102E4C000123FB7300E000BF7B68012283F83D2067
:102E5C007B68002283F83C20FB7B18461037BD466C
:102E6C0080BD000080B485B000AF786039607B68AD
:102E7C001B68FB607B68294A93420BD07B68B3F1DB
:102E8C00804F07D07B68264A934203D07B68254A43
:102E9C00934208D1FB6823F07003FB603B685B68CE
:102EAC00FA681343FB607B681C4A93420BD07B6827
:102EBC00B3F1804F07D07B68194A934203D07B68EB
:102ECC00184A934208D1FB6823F44073FB603B68BB
:102EDC00DB68FA681343FB60FB6823F080023B68F5
:102EEC005B691343FB607B68FA681A603B689A68FD
:102EFC007B68DA623B681A687B689A627B68074A6F
:102F0C00934203D13B681A697B681A637B68012280
:102F1C005A6100BF1437BD4680BC7047002C01407D
:102F2C00000400400008004080B487B000AF786017
:102F3C0039607B681B6A7B617B681B6A23F001022A
:102F4C007B681A627B685B683B617B689B69FB6092
:102F5C00FB6823F07003FB60FB6823F00303FB604A
:102F6C003B681B68FA681343FB607B6923F0020320
:102F7C007B613B689B687A6913437B617B681C4A65
:102F8C0093420CD17B6923F008037B613B68DB68BF
:102F9C007A6913437B617B6923F004037B617B6853
:102FAC00134A934211D13B6923F480733B613B6913
:102FBC0023F400733B613B685B693A6913433B61E3
:102FCC003B689B693A6913433B617B683A695A6079
:102FDC007B68FA689A613B685A687B685A637B68BD
:102FEC007A691A6200BF1C37BD4680BC704700BFAF
:102FFC00002C014080B487B000AF786039607B68EA
:10300C001B6A7B617B681B6A23F010027B681A6267
:10301C007B685B683B617B689B69FB60FB6823F4A6
:10302C00E043FB60FB6823F44073FB603B681B6868
:10303C001B02FA681343FB607B6923F020037B615E
:10304C003B689B681B017A6913437B617B681D4A53
:10305C0093420DD17B6923F080037B613B68DB6875
:10306C001B017A6913437B617B6923F040037B610D
:10307C007B68144A934213D13B6923F480633B6110
:10308C003B6923F400633B613B685B699B003A69D5
:10309C0013433B613B689B699B003A6913433B615B
:1030AC007B683A695A607B68FA689A613B685A682F
:1030BC007B689A637B687A691A6200BF1C37BD46CD
:1030CC0080BC7047002C014080B487B000AF7860A2
:1030DC0039607B681B6A7B617B681B6A23F4807296
:1030EC007B681A627B685B683B617B68DB69FB60B1
:1030FC00FB6823F07003FB60FB6823F00303FB60A9
:10310C003B681B68FA681343FB607B6923F400730C
:10311C007B613B689B681B027A6913437B617B680C
:10312C001D4A93420DD17B6923F400637B613B689C
:10313C00DB681B027A6913437B617B6923F4806330
:10314C007B617B68144A934213D13B6923F480530F
:10315C003B613B6923F400533B613B685B691B019A
:10316C003A6913433B613B689B691B013A69134302
:10317C003B617B683A695A607B68FA68DA613B6844
:10318C005A687B68DA637B687A691A6200BF1C37FD
:10319C00BD4680BC704700BF002C014080B487B096
:1031AC0000AF786039607B681B6A3B617B681B6A87
:1031BC0023F480527B681A627B685B687B617B6856
:1031CC00DB69FB60FB6823F4E043FB60FB6823F4E2
:1031DC004073FB603B681B681B02FA681343FB607F
:1031EC003B6923F400533B613B689B681B033A69C2
:1031FC0013433B617B680F4A934209D17B6923F4EB
:10320C0080437B613B685B699B017A6913437B61FB
:10321C007B687A695A607B68FA68DA613B685A683D
:10322C007B681A647B683A691A6200BF1C37BD461A
:10323C0080BC7047002C014080B487B000AFF860B0
:10324C00B9607A60FB681B6A7B61FB681B6A23F0C0
:10325C000102FB681A62FB689B693B613B6923F0C6
:10326C00F0033B617B681B013A6913433B617B694B
:10327C0023F00A037B617A69BB6813437B61FB68AB
:10328C003A699A61FB687A691A6200BF1C37BD46BD
:10329C0080BC704780B487B000AFF860B9607A60CA
:1032AC00FB681B6A7B61FB681B6A23F01002FB68DE
:1032BC001A62FB689B693B613B6923F470433B6179
:1032CC007B681B033A6913433B617B6923F0A003C2
:1032DC007B61BB681B017A6913437B61FB683A69AC
:1032EC009A61FB687A691A6200BF1C37BD4680BCC4
:1032FC00704780B485B000AF786039607B689B689C
:10330C00FB60FB6823F07003FB603A68FB681343B7
:10331C0043F00703FB607B68FA689A6000BF1437C0
:10332C00BD4680BC704780B487B000AFF860B96010
:10333C007A603B60FB689B687B617B6923F47F430D
:10334C007B613B681A027B681A43BB6813437A693A
:10335C0013437B61FB687A699A6000BF1C37BD46DA
:10336C0080BC704780B487B000AFF860B9607A60F9
:10337C00BB6803F01F03012202FA03F37B61FB68B5
:10338C001A6A7B69DB431A40FB681A62FB681A6A8B
:10339C00BB6803F01F03796801FA03F31A43FB6857
:1033AC001A6200BF1C37BD4680BC704780B485B024
:1033BC0000AF786039607B6893F83C30012B01D109
:1033CC00022346E07B68012283F83C207B680222C2
:1033DC0083F83D207B681B685B68FB607B681B681F
:1033EC009B68BB60FB6823F07003FB603B681B6849
:1033FC00FA681343FB607B681B68FA685A607B6849
:10340C001B68164A93420ED07B681B68B3F1804F41
:10341C0009D07B681B68124A934204D07B681B68F6
:10342C00104A93420CD1BB6823F08003BB603B680D
:10343C005B68BA681343BB607B681B68BA689A60A8
:10344C007B68012283F83D207B68002283F83C20B6
:10345C00002318461437BD4680BC7047002C014031
:10346C00000400400008004080B582B000AF7860D6
:10347C007B68002B01D1012342E07B6893F841303B
:10348C00DBB2002B06D17B68002283F840207868E1
:10349C00FDF7E2FB7B68242283F841207B681B68E4
:1034AC00DA687B681B6822F40052DA60786800F0F6
:1034BC00D5FC7B681B681A697B681B6822F49042F8
:1034CC001A617B681B685A697B681B6822F02A02A8
:1034DC005A617B681B68DA687B681B6842F400528F
:1034EC00DA607B6800225A647B68202283F84120D2
:1034FC007B68202283F842207B6800225A630023D9
:10350C0018460837BD4680BD80B584B000AFF86062
:10351C00B9601346FB80FB6893F84230DBB2202B7A
:10352C0012D1BB68002B02D0FB88002B01D10123E8
:10353C000BE0FB6800221A63FB881A46B968F8682E
:10354C0000F0B7FA034600E0022318461037BD46D8
:10355C0080BD000080B5BAB000AF78607B681B6896
:10356C001B68C7F8E4307B681B68DB68C7F8E03081
:10357C007B681B685B69C7F8DC300023C7F8D83060
:10358C000023C7F8D430D7F8E43003F00F03C7F8A2
:10359C00D830D7F8D830002B0FD1D7F8E43003F05F
:1035AC002003002B09D0D7F8E03003F02003002BC8
:1035BC0003D0786800F093FB5BE2D7F8D830002B8F
:1035CC0000F0DE80D7F8DC3003F00103002B06D1CD
:1035DC00D7F8E03003F49073002B00F0D180D7F8CB
:1035EC00E43003F00103002B0BD0D7F8E03003F4E8
:1035FC008073002B05D07B685B6C43F001027B6809
:10360C005A64D7F8E43003F00403002B0BD0D7F83E
:10361C00DC3003F00103002B05D07B685B6C43F0BE
:10362C0002027B685A64D7F8E43003F00203002BE3
:10363C000BD0D7F8DC3003F00103002B05D07B68EE
:10364C005B6C43F004027B685A64D7F8E43003F0F7
:10365C000803002B11D0D7F8E03003F02003002B27
:10366C0005D1D7F8DC3003F00103002B05D07B68C3
:10367C005B6C43F008027B685A647B685B6C002BC4
:10368C0000F0F281D7F8E43003F02003002B08D0CF
:10369C00D7F8E03003F02003002B02D0786800F05C
:1036AC001EFB7B681B685B6903F04003002B14BF97
:1036BC0001230023DBB2C7F8D4307B685B6C03F0CA
:1036CC000803002B03D1D7F8D430002B4FD07868E7
:1036DC0000F028FA7B681B685B6903F04003002B41
:1036EC0041D07B681B681433C7F89C30D7F89C30EA
:1036FC0053E8003FC7F89830D7F8983023F04003D0
:10370C00C7F8D0307B681B681433D7F8D020C7F8C3
:10371C00A820C7F8A430D7F8A410D7F8A82041E8FF
:10372C000023C7F8A030D7F8A030002BD9D17B6884
:10373C00DB6B002B13D07B68DB6B7E4A5A637B6898
:10374C00DB6B1846FDF7E4FC0346002B16D07B68B8
:10375C00DB6B5B6B7A68D26B104698470EE078682F
:10376C0000F093F90AE0786800F08FF906E07868C9
:10377C0000F08BF97B6800225A6475E100BF73E19D
:10378C007B681B6B012B40F04F81D7F8E43003F0C2
:10379C001003002B00F04881D7F8E03003F0100341
:1037AC00002B00F041810023BB607B681B681B6809
:1037BC00BB607B681B685B68BB60BB687B681B6815
:1037CC005B6903F04003002B00F0B6807B68DB6B79
:1037DC001B685B68A7F8BE30B7F8BE30002B00F052
:1037EC0045817B689B8DB7F8BE209A4280F03E8164
:1037FC007B68B7F8BE20DA857B68DB6B9B69202B76
:10380C0000F088807B681B680C33C7F88830D7F8C9
:10381C00883053E8003FC7F88430D7F8843023F45D
:10382C008073C7F8B8307B681B680C33D7F8B820A6
:10383C00C7F89420C7F89030D7F89010D7F8942098
:10384C0041E80023C7F88C30D7F88C30002BD9D145
:10385C007B681B6814337B677B6F53E8003F3B67C7
:10386C003B6F23F00103C7F8B4307B681B6814333B
:10387C00D7F8B420C7F88020FB67F96FD7F8802001
:10388C0041E80023BB67BB6F002BE1D17B681B6851
:10389C0014333B663B6E53E8003FFB65FB6D23F036
:1038AC004003C7F8B0307B681B681433D7F8B020DE
:1038BC00FA66BB66B96EFA6E41E800237B667B6ED6
:1038CC00002BE3D17B68202283F842207B68002206
:1038DC001A637B681B680C33FB64FB6C53E8003F7A
:1038EC00BB64BB6C23F01003C7F8AC307B681B685F
:1038FC000C33D7F8AC20BA657B65796DBA6D41E8AD
:10390C0000233B653B6D002BE3D17B68DB6B1846DA
:10391C00FDF7C3FB7B6802225A637B689A8D7B6838
:10392C00DB8D9BB2D31A9BB21946786800F0B6F8BF
:10393C009CE000BFF53B00087B689A8D7B68DB8DB3
:10394C009BB2D31AA7F8CE307B68DB8D9BB2002BD1
:10395C0000F08E80B7F8CE30002B00F089807B68A9
:10396C001B680C33BB63BB6B53E8003F7B637B6B07
:10397C0023F49073C7F8C8307B681B680C33D7F8F6
:10398C00C8207A643B64396C7A6C41E80023FB6391
:10399C00FB6B002BE3D17B681B6814337B627B6A67
:1039AC0053E8003F3B623B6A23F00103C7F8C43085
:1039BC007B681B681433D7F8C4203A63FB62F96A3E
:1039CC003A6B41E80023BB62BB6A002BE3D17B68F6
:1039DC00202283F842207B6800221A637B681B68D4
:1039EC000C333B613B6953E8003FFB60FB6823F001
:1039FC001003C7F8C0307B681B680C33D7F8C020A5
:103A0C00FA61BB61B969FA6941E800237B617B69A2
:103A1C00002BE3D17B6802225A63B7F8CE301946EB
:103A2C00786800F03BF823E0D7F8E43003F080032B
:103A3C00002B09D0D7F8E03003F08003002B03D023
:103A4C00786800F0E5F814E0D7F8E43003F04003B0
:103A5C00002B0ED0D7F8E03003F04003002B08D039
:103A6C00786800F024F904E000BF02E000BF00E039
:103A7C0000BFE837BD4680BD80B483B000AF78602E
:103A8C0000BF0C37BD4680BC704780B483B000AF1C
:103A9C00786000BF0C37BD4680BC704780B483B0E3
:103AAC0000AF78600B467B8000BF0C37BD4680BCF6
:103ABC00704780B485B000AFF860B9601346FB80E6
:103ACC00FB68BA689A62FB68FA889A85FB68FA8880
:103ADC00DA85FB6800225A64FB68222283F84220B4
:103AEC00FB681B69002B07D0FB681B68DA68FB6856
:103AFC001B6842F48072DA60FB681B685A69FB68C9
:103B0C001B6842F001025A61FB681B68DA68FB68AB
:103B1C001B6842F02002DA60002318461437BD46B9
:103B2C0080BC704780B495B000AF78607B681B6830
:103B3C000C337B637B6B53E8003F3B633B6B23F4A1
:103B4C009073FB647B681B680C33FA6C3A64FB6300
:103B5C00F96B3A6C41E80023BB63BB6B002BE5D1DE
:103B6C007B681B6814333B623B6A53E8003FFB6184
:103B7C00FB6923F00103BB647B681B681433BA6CCC
:103B8C00FA62BB62B96AFA6A41E800237B627B6A1B
:103B9C00002BE5D17B681B6B012B19D17B681B6853
:103BAC000C33FB60FB6853E8003FBB60BB6823F041
:103BBC0010037B647B681B680C337A6CBA617B6185
:103BCC007969BA6941E800233B613B69002BE5D177
:103BDC007B68202283F842207B6800221A6300BF96
:103BEC005437BD4680BC704780B584B000AF786058
:103BFC007B685B6AFB60FB680022DA85FB6800224D
:103C0C00DA84F868FFF741FF00BF1037BD4680BD6E
:103C1C0080B485B000AF78607B6893F84130DBB23C
:103C2C00212B3ED17B689B68B3F5805F14D17B68F8
:103C3C001B69002B10D17B681B6AFB60FB681B881F
:103C4C001A467B681B68C2F308025A607B681B6AC1
:103C5C009A1C7B681A6208E07B681B6A591C7A689C
:103C6C0011621A787B681B685A607B68DB8C9BB28C
:103C7C00013B9BB27A681946D184002B0FD17B682B
:103C8C001B68DA687B681B6822F08002DA607B684C
:103C9C001B68DA687B681B6842F04002DA6000231C
:103CAC0000E0022318461437BD4680BC704780B52F
:103CBC0082B000AF78607B681B68DA687B681B6831
:103CCC0022F04002DA607B68202283F84120786879
:103CDC00FFF7D2FE002318460837BD4680BD80B5DD
:103CEC008CB000AF78607B6893F84230DBB2222B4B
:103CFC0040F0AE807B689B68B3F5805F17D17B6822
:103D0C001B69002B13D10023FB627B689B6ABB628F
:103D1C007B681B685B689BB2C3F308039AB2BB6AEF
:103D2C001A807B689B6A9A1C7B689A6226E07B6887
:103D3C009B6AFB620023BB627B689B68B3F5805F68
:103D4C0007D07B689B68002B0AD17B681B69002B12
:103D5C0006D17B681B685B68DAB2FB6A1A7008E0F4
:103D6C007B681B685B68DBB203F07F03DAB2FB6A2B
:103D7C001A707B689B6A5A1C7B689A627B68DB8D25
:103D8C009BB2013B9BB27A681946D185002B5DD161
:103D9C007B681B68DA687B681B6822F02002DA609B
:103DAC007B681B68DA687B681B6822F48072DA60B7
:103DBC007B681B685A697B681B6822F001025A6198
:103DCC007B68202283F842207B6800225A637B6840
:103DDC001B6B012B35D17B6800221A637B681B6837
:103DEC000C337B617B6953E8003F3B613B6923F0FB
:103DFC0010037B627B681B680C337A6A3A62FB6146
:103E0C00F9693A6A41E80023BB61BB69002BE5D133
:103E1C007B681B681B6803F01003102B0AD100236E
:103E2C00FB607B681B681B68FB607B681B685B68BE
:103E3C00FB60FB687B689B8D19467868FFF72EFE4C
:103E4C0002E07868FCF762FB002302E0002300E04C
:103E5C00022318463037BD4680BD000080B584B0C3
:103E6C0000AF78607B681B681B6923F440517B684A
:103E7C00DA687B681B680A431A617B689A687B68FE
:103E8C001B691A437B685B691343BB607B681B68C7
:103E9C00DB6823F4B05323F00C037A681268B9681A
:103EAC000B43D3607B681B685B6923F440717B68B0
:103EBC009A697B681B680A435A617B681B682C4AA9
:103ECC00934203D1FEF7C8FCF86002E0FEF7B0FCA9
:103EDC00F860FA6813469B0013449A001A447B68F6
:103EEC005B689B00B2FBF3F3224AA2FB03235B0942
:103EFC001901FA6813469B0013449A001A447B6814
:103F0C005B689B00B2FBF3F21A4BA3FB02035B0949
:103F1C00642000FB03F3D31A1B013233154AA2FBB6
:103F2C0003235B0903F0F0031944FA6813469B0062
:103F3C0013449A001A447B685B689B00B2FBF3F253
:103F4C000C4BA3FB02035B09642000FB03F3D31AA5
:103F5C001B013233074AA2FB03235B0903F00F0258
:103F6C007B681B680A449A6000BF1037BD4680BD51
:103F7C00003801401F85EB510A22002100F07EB869
:103F8C00012B2DE9F0478646904601D0242B06D90B
:103F9C0000F086F8162303600020BDE8F0870D467C
:103FAC0035482A4615F8014B065D16F00806F8D17F
:103FBC002D2C2ED101262C78951C002B57D0102B94
:103FCC0009D1302C07D12A7802F0DF02582A49D1C6
:103FDC0010236C780235002206F1004C0CF1FF3CEA
:103FEC00BCFBF3F9104603FB19CAA4F13007092FE7
:103FFC0014D83C46A34220DD571C07D0814519D369
:10400C0001D1A24516DB012200FB034015F8014B40
:10401C00EBE72B2C04BF2C78951CCEE7A4F14107C1
:10402C00192F01D8373CE5E7A4F16107192F04D803
:10403C00573CDFE74FF0FF32E8E7531C08D122234F
:10404C006046CEF80030B8F1000FA6D0691E06E02D
:10405C0006B14042B8F1000F9FD0002AF6D1C8F843
:10406C0000109AE73024002BB5D10823B3E7302C8D
:10407C00A9D00A23AFE700BFBB4E000813460A467F
:10408C00014602480068FFF77BBF00BF60000020BC
:10409C0003460244934200D1704703F8011BF9E731
:1040AC00014B1868704700BF6000002070B50026F7
:1040BC000C4D0D4C641BA410A64209D100F028F83D
:1040CC0000260A4D0A4C641BA410A64205D170BDF3
:1040DC0055F8043B98470136EEE755F8043B9847F2
:1040EC000136F2E7BC4F0008BC4F0008BC4F00087B
:1040FC00C04F00080A44914200F1FF3300D17047D1
:10410C0010B511F8014B914203F8014FF9D110BDD4
:10411C00F8B500BFF8BC08BC9E467047F8B500BFA8
:08412C00F8BC08BC9E46704778
:10413400000000000000000000000000000000007B
:10414400000000000000000000000000000000006B
:10415400000000000000000C000C000C000C000C1F
:10416400000C000C000C000C000C000C0000000CF7
:10417400000C0000000000000000001B001B001BDE
:10418400001B001B000000000000000000000000F5
:104194000000000000000000000000000000801982
:1041A400801980198019C07FC07F80190033C07FB7
:1041B400C07F0033003300330033000000000000F0
:1041C4000000001E003F807580650074003C001EE6
:1041D40000078005806580658075003F001E00042F
:1041E400000400000000007000D840D8C0D880D976
:1041F40000730006000C801BC036C066C046C006B3
:1042040080030000000000000000001E003F003397
:1042140000330033001E000CC03CC0668063806124
:104224008063C03E801C0000000000000000000C01
:10423400000C000C000C000C00000000000000004A
:10424400000000000000000000000000000000006A
:10425400800000010003000600060004000C000CAE
:10426400000C000C000C000C000400060006000307
:1042740000018000002000100018000C000C000455
:104284000006000600060006000600060004000CF6
:10429400000C0018001000200000000C002D003F4E
:1042A400001E0033000000000000000000000000B9
:1042B40000000000000000000000000000000000FA
:1042C4000000000C000C000C000CC0FFC0FF000C30
:1042D400000C000C000C00000000000000000000B6
:1042E40000000000000000000000000000000000CA
:1042F40000000000000000000000000C000C00049E
:10430400000400080000000000000000000000009D
:10431400000000000000001E001E0000000000005D
:104324000000000000000000000000000000000089
:104334000000000000000000000000000000000079
:104344000000000C000C000000000000000000034E
:10435400000300030006000600060006000C000C23
:10436400000C000C001800180018000000000000E9
:104374000000001E003F0033806180618061806D19
:10438400806D8061806180610033003F001E000009
:104394000000000000000006000E001E003600268B
:1043A40000060006000600060006000600060006D9
:1043B40000060000000000000000001E003F8073A3
:1043C40080618061800100030006000C0018003049
:1043D4000060807F807F0000000000000000001C5F
:1043E400003E006300630003000E000E0003800122
:1043F400800180618073003F001E00000000000007
:1044040000000006000E000E001E001E00160036FE
:1044140000360066807F807F0006000600060000EC
:10442400000000000000007F007F0060006000606A
:10443400006E007F80638001800180618073003F93
:10444400001E0000000000000000001E003F80333A
:1044540080610060006E007F807380618061806194
:104464008033003F001E0000000000000000807F39
:10447400807F80010003000300060006000C000C8E
:10448400000C0008001800180018000000000000CC
:104494000000001E003F8063806180610021001ED7
:1044A400003F8061806180618061003F001E0000E8
:1044B400000000000000001E003F00738061806166
:1044C40080618073803F801D800180610073003FA4
:1044D400001E0000000000000000000000000000BA
:1044E4000000000C000C00000000000000000000B0
:1044F4000000000C000C00000000000000000000A0
:104504000000000000000000000C000C000000008F
:10451400000000000000000C000C0004000400086F
:10452400000000000000000080008003000E00383E
:1045340000600038000E80038000000000000000CE
:104544000000000000000000000000000000807F68
:10455400807F00000000807F807F0000000000005A
:104564000000000000000000000000000000000047
:1045740000400070001C000780010007001C007050
:104584000040000000000000000000000000001FC8
:10459400803FC071C060C000C00180030007000EEE
:1045A400000C000C0000000C000C000000000000D7
:1045B4000000001E003F803180718063806F806D39
:1045C400806D806F806700600032003E001C000038
:1045D400000000000000000E000E001B001B001B6A
:1045E400001B80318031803F803F8031C060C060DB
:1045F400C0600000000000000000007C007E00633A
:10460400006300630063007E007E0063806180615C
:104614008063007F007E0000000000000000001E98
:10462400003F8031806100600060006000600060D5
:10463400006080618031003F001E00000000000027
:104644000000007C007F0063806380618061806182
:1046540080618061806100630063007E007C0000F3
:10466400000000000000807F807F00600060006028
:104674000060007F007F0060006000600060807F59
:10468400807F0000000000000000807F807F0060C9
:10469400006000600060007F007F006000600060D8
:1046A4000060006000600000000000000000001EC8
:1046B400003F80318061006000600060806380633F
:1046C400806180618031803F001E00000000000096
:1046D4000000806180618061806180618061807F91
:1046E400807F806180618061806180618061000081
:1046F400000000000000003F003F000C000C000C14
:10470400000C000C000C000C000C000C000C003F12
:10471400003F0000000000000000800180018001D3
:1047240080018001800180018001800180618061BD
:104734008073003F001E0000000000000000C06005
:104744008061006300660066006C0078007C00668F
:104754000066006380618061C060000000000000AA
:1047640000000060006000600060006000600060A5
:1047740000600060006000600060807F807F000057
:10478400000000000000C071C071C07BC07AC06A24
:10479400C06AC06EC064C060C060C060C060C060F9
:1047A400C06000000000000000008071807180790A
:1047B40080798079806D806D806D80658067806789
:1047C4008067806380630000000000000000001E1A
:1047D400003F00338061806180618061806180611D
:1047E400806180610033003F001E00000000000073
:1047F4000000007E007F806380618061806180634F
:10480400007F007E006000600060006000600000C7
:10481400000000000000001E003F00338061806142
:104824008061806180618061806580670033803F42
:10483400401E0000000000000000007E007F806336
:10484400806180618063007F007E00660063006396
:1048540080618061C0600000000000000000000E64
:10486400001F8031803100300038001E00078003B3
:10487400806180618031003F001E00000000000064
:104884000000C0FFC0FF000C000C000C000C000C6A
:10489400000C000C000C000C000C000C000C0000C0
:1048A400000000000000806180618061806180619F
:1048B4008061806180618061806180618073003F7C
:1048C400001E0000000000000000C060C060C06066
:1048D400803180318031001B001B001B001B000E47
:1048E400000E000E00040000000000000000C0C024
:1048F400C0C0C0C0C0C0C0C0C0CC804C804C805EB2
:10490400805280528073806180610000000000004A
:104914000000C0C0806080610033003B001E000CBA
:10492400000C001E001F003B80718061C0C00000AD
:10493400000000000000C0C08061806100330033CB
:10494400001E001E000C000C000C000C000C000CDF
:10495400000C0000000000000000803F803F800148
:10496400000300030006000C000C001800180030BF
:104974000060807F807F000000000000000F000FB7
:10498400000C000C000C000C000C000C000C000CC3
:10499400000C000C000C000C000C000C000F000FAD
:1049A4000000001800180018000C000C000C000C8B
:1049B40000060006000600060003000300030000D2
:1049C40000000000001E001E00060006000600068F
:1049D40000060006000600060006000600060006A3
:1049E40000060006001E001E0000000C000C001E45
:1049F4000012003300338061806100000000000079
:104A040000000000000000000000000000000000A2
:104A14000000000000000000000000000000000092
:104A2400000000000000000000000000E0FF0000A3
:104A3400000000380018000C000000000000000016
:104A44000000000000000000000000000000000062
:104A54000000000000000000000000000000001F33
:104A6400803F80618001801F803F80618063807F00
:104A7400C03800000000000000000060006000601A
:104A84000060006E007F807380618061806180615E
:104A94008073007F006E0000000000000000000032
:104AA400000000000000001E003F80738061006071
:104AB400006080618073003F001E00000000000061
:104AC40000008001800180018001801D803F80738F
:104AD40080618061806180618073803F801D0000FF
:104AE4000000000000000000000000000000001EA4
:104AF400003F00738061807F807F00608071003F91
:104B0400001E0000000000000000C007C00F000CE1
:104B1400000C807F807F000C000C000C000C000C4B
:104B2400000C000C000C000000000000000000005D
:104B340000000000801D803F80738061806180617F
:104B440080618073803F801D80018063007F003E10
:104B540000000060006000600060006F807F807172
:104B6400806180618061806180618061806100001A
:104B74000000000000000006000600000000003EE7
:104B8400003E0006000600060006000600060006B9
:104B940000060000000000000006000600000000FF
:104BA400003E003E00060006000600060006000661
:104BB4000006000600060046007E003C000000607F
:104BC400006000600060806100630066006C007C2F
:104BD4000076006300638061C06000000000000094
:104BE4000000003E003E0006000600060006000627
:104BF4000006000600060006000600060006000087
:104C0400000000000000000000000000000080DD43
:104C1400C0FFC0CEC0CCC0CCC0CCC0CCC0CCC0CCFB
:104C2400C0CC0000000000000000000000000000F4
:104C34000000006F807F807180618061806180618D
:104C440080618061806100000000000000000000BD
:104C5400000000000000001E003F8073806180613E
:104C6400806180618073003F001E0000000000002E
:104C74000000000000000000006E007F807380616F
:104C84008061806180618073007F006E00600060DD
:104C9400006000600000000000000000801D803FF4
:104CA400807380618061806180618073803F801D3A
:104CB40080018001800180010000000000000000EC
:104CC40000000067803F00390030003000300030C1
:104CD4000030003000300000000000000000000040
:104CE400000000000000001E803F80610060007F23
:104CF400803F80018061007F001E000000000000F2
:104D040000000000000800180018007F007F001851
:104D140000180018001800180018801F800F0000E9
:104D2400000000000000000000000000000080619E
:104D34008061806180618061806180618063807F47
:104D4400803D0000000000000000000000000000A2
:104D54000000C060803180318031001B001B001BCB
:104D6400000E000E0006000000000000000000001D
:104D740000000000000080DD80DD80DD005500556E
:104D84000055007700770022002200000000000098
:104D940000000000000000000000806100330033C8
:104DA400001E000C000C001E003300338061000064
:104DB400000000000000000000000000806180612D
:104DC400803100330033001B001B001B000E000E5B
:104DD400000E001C007C00700000000000000000B9
:104DE4000000C07FC07F800100030006000C001893
:104DF4000030C07FC07F00000000000080038007F7
:104E040000060006000600060006000E001C001C3A
:104E1400000E000600060006000600068007800358
:104E2400000600060006000600060006000600064E
:104E3400000600060006000600060006000600063E
:104E4400000600060038003C000C000C000C000CAE
:104E5400000C000E00070007000E000C000C000CF4
:104E6400000C000C003C00380000000000000000B2
:104E74000000000000008038807F00470000000030
:104E8400000000000000000000000000000000001E
:104E940000000000010203040607080900000000E6
:104EA4000102030402030405060708090A0B0C0D9A
:104EB4000E0F10100102002020202020202020208E
:104EC40028282828282020202020202020202020B6
:104ED40020202020202020881010101010101010E6
:104EE400101010101010100404040404040404042A
:104EF40004101010101010104141414141410101B2
:104F0400010101010101010101010101010101018D
:104F1400010110101010101042424242424202029B
:104F2400020202020202020202020202020202025D
:104F34000202101010102000000000000000000009
:104F4400000000000000000000000000000000005D
:104F5400000000000000000000000000000000004D
:104F6400000000000000000000000000000000003D
:104F7400000000000000000000000000000000002D
:104F8400000000000000000000000000000000001D
:104F9400000000000000000000000000000000000D
:104FA40000000000000000000000000000000000FD
:084FB4000000000000000000F5
:044FBC0031010008B7
:044FC0000D010008D7
:104FC4000B120000344100080024F400100000001B
:104FD400010000000000000080050020E80500201A
:104FE4005006002000000000000000000000000047
:104FF40000000000000000000000000000000000AD
:10500400000000000000000000000000000000009C
:10501400000000000000000000000000000000008C
:045024001400002054
:0400000508000D7D65
:00000001FF
